{
  "contractName": "EnergyConsumption",
  "abi": [
    {
      "inputs": [
        {
          "internalType": "uint256",
          "name": "",
          "type": "uint256"
        }
      ],
      "name": "consumptions",
      "outputs": [
        {
          "internalType": "uint256",
          "name": "timestamp",
          "type": "uint256"
        },
        {
          "internalType": "uint256",
          "name": "value",
          "type": "uint256"
        }
      ],
      "stateMutability": "view",
      "type": "function",
      "constant": true
    },
    {
      "inputs": [
        {
          "internalType": "uint256",
          "name": "_timestamp",
          "type": "uint256"
        },
        {
          "internalType": "uint256",
          "name": "_value",
          "type": "uint256"
        }
      ],
      "name": "addConsumption",
      "outputs": [],
      "stateMutability": "nonpayable",
      "type": "function"
    },
    {
      "inputs": [],
      "name": "getConsumptionCount",
      "outputs": [
        {
          "internalType": "uint256",
          "name": "",
          "type": "uint256"
        }
      ],
      "stateMutability": "view",
      "type": "function",
      "constant": true
    },
    {
      "inputs": [
        {
          "internalType": "uint256",
          "name": "_index",
          "type": "uint256"
        }
      ],
      "name": "getConsumption",
      "outputs": [
        {
          "internalType": "uint256",
          "name": "",
          "type": "uint256"
        },
        {
          "internalType": "uint256",
          "name": "",
          "type": "uint256"
        }
      ],
      "stateMutability": "view",
      "type": "function",
      "constant": true
    }
  ],
  "bytecode": "0x608060405234801561000f575f80fd5b506103188061001d5f395ff3fe608060405234801561000f575f80fd5b5060043610610049575f3560e01c8062f9f4821461004d57806394eceda71461007e578063c3dd2e71146100af578063d4979d13146100cb575b5f80fd5b610067600480360381019061006291906101fd565b6100e9565b604051610075929190610237565b60405180910390f35b610098600480360381019061009391906101fd565b610117565b6040516100a6929190610237565b60405180910390f35b6100c960048036038101906100c4919061025e565b610167565b005b6100d36101bb565b6040516100e0919061029c565b60405180910390f35b5f81815481106100f7575f80fd5b905f5260205f2090600202015f91509050805f0154908060010154905082565b5f805f838154811061012c5761012b6102b5565b5b905f5260205f2090600202015f01545f848154811061014e5761014d6102b5565b5b905f5260205f2090600202016001015491509150915091565b5f604051806040016040528084815260200183815250908060018154018082558091505060019003905f5260205f2090600202015f909190919091505f820151815f01556020820151816001015550505050565b5f8080549050905090565b5f80fd5b5f819050919050565b6101dc816101ca565b81146101e6575f80fd5b50565b5f813590506101f7816101d3565b92915050565b5f60208284031215610212576102116101c6565b5b5f61021f848285016101e9565b91505092915050565b610231816101ca565b82525050565b5f60408201905061024a5f830185610228565b6102576020830184610228565b9392505050565b5f8060408385031215610274576102736101c6565b5b5f610281858286016101e9565b9250506020610292858286016101e9565b9150509250929050565b5f6020820190506102af5f830184610228565b92915050565b7f4e487b71000000000000000000000000000000000000000000000000000000005f52603260045260245ffdfea264697066735822122011292024eff66c76c863202393a0ca84e3ed440640dbeffc09c8228db28d184f64736f6c63430008150033",
  "immutableReferences": {},
  "source": "//SPDX-License-Identifier: MIT\r\npragma solidity ^0.8.0;\r\n\r\ncontract EnergyConsumption {\r\n    struct Consumption {\r\n        uint timestamp;\r\n        uint value; // Verbrauch in kW\r\n    }\r\n\r\n    Consumption[] public consumptions;\r\n\r\n    function addConsumption(uint _timestamp, uint _value) public {\r\n        consumptions.push(Consumption(_timestamp, _value));\r\n    }\r\n\r\n    function getConsumptionCount() public view returns (uint) {\r\n        return consumptions.length;\r\n    }\r\n\r\n    function getConsumption(uint _index) public view returns (uint, uint) {\r\n        return (consumptions[_index].timestamp, consumptions[_index].value);\r\n    }\r\n}",
  "sourcePath": "C:\\Users\\oliver.anderson\\Documents\\Dev\\github.com\\sunnyolive108\\SmartHomeEnergyAssistant\\SmartContractHomeAssistant\\contracts\\EnergyConsumption.sol",
  "compiler": {
    "name": "solc",
    "version": "0.8.21+commit.d9974bed.Emscripten.clang"
  },
  "schemaVersion": "3.4.16",
  "updatedAt": "2025-01-05T06:24:19.574Z",
  "networkType": "ethereum",
  "devdoc": {
    "kind": "dev",
    "methods": {},
    "version": 1
  },
  "userdoc": {
    "kind": "user",
    "methods": {},
    "version": 1
  }
}